:100000000C9460000C9488000C9488000C94880078
:100010000C9488000C9488000C9488000C94880040
:100020000C9488000C9488000C9488000C94880030
:100030000C9488000C9488000C9488000C94880020
:100040000C9407110C9488000C9475130C94A7134E
:100050000C9488000C9488000C9488000C94880000
:100060000C9488000C948800000000080002010035
:100070000003040700000000000000000102040863
:100080001020408001020408102001020408102002
:10009000040404040404040402020202020203032E
:1000A0000303030300000000250028002B000000CC
:1000B0000000240027002A007401CD011205D71387
:1000C00011241FBECFEFD8E0DEBFCDBF13E0A0E00C
:1000D000B1E0E8EDFAE202C005900D92A031B1075F
:1000E000D9F726E0A0E1B3E001C01D92A635B20722
:1000F000E1F710E0C0ECD0E004C02297FE010E94BE
:100100005715C83BD107C9F70E941B140C946A15F8
:100110000C940000CF92DF92EF92FF9226E040E82D
:1001200055E260E070E089EB95E00E9413136AE00D
:1001300071E089EB95E00E94681461E08AE00E941A
:10014000C11148E061E08BE493E00E940A03811151
:1001500015C063E271E089EB95E00E9475146BE4D1
:1001600071E089EB95E00E94751464E671E089EB1B
:1001700095E00E9475146EE771E037C062EC71E0A3
:1001800089EB95E00E9475146BEE71E089EB95E0C8
:100190000E94681480915603823039F0833041F018
:1001A000813049F468EF71E008C06CEF71E005C080
:1001B00060E072E002C065E072E089EB95E00E94C9
:1001C000751441E06BE473E08DE293E00E94F30F5D
:1001D000811113C040E06BE473E08DE293E00E9474
:1001E000F30F81110AC06DE072E089EB95E0FF909A
:1001F000EF90DF90CF900C94751467E572E089EB77
:1002000095E00E9468144AE050E06091440389EB55
:1002100095E00E94ED1489EB95E00E947114A09185
:1002200031032091360330913703409138035091C8
:10023000390389E0220F331F441F551F8A95D1F7D8
:10024000B0E00E944A156B017C016BE672E089EB1D
:1002500095E00E9468142AE030E0B701A60189EB1E
:1002600095E00E940A1561E872E089EB95E00E9432
:100270006814B701A6019AE076956795579547955A
:100280009A95D1F72AE030E089EB95E00E940A15B3
:1002900068E972E089EB95E00E946814B701A60155
:1002A00024E176956795579547952A95D1F72AE0E9
:1002B00030E089EB95E00E940A156FEA72E089EB65
:1002C00095E00E9475146DE273E080E193E00E9476
:1002D0005B0540E067E080E193E0FF90EF90DF9006
:1002E000CF900C949D0B08951092500310925103DF
:1002F000109254031092560382E090E0A0E0B0E028
:1003000080932D0390932E03A0932F03B09330037B
:100310001092440310921303109212038DEE92E098
:100320009093110380931003109215030895CF93B7
:10033000CFB7F89480915A03811127C0EAE9F0E021
:100340008491E6E8F0E09491E82FF0E0EE0FFF1FD3
:10035000E255FF4FA591B4918C91892321F461E07E
:100360008AE00E94FA1161E08AE00E94C1118CB516
:1003700080618CBD8CB580648CBD61E08DE00E9495
:10038000C11161E08BE00E94C11180915A038F5F1F
:1003900080935A03CFBFCF910895109260031092BB
:1003A0006103109264031092660382E090E0A0E083
:1003B000B0E08093670390936803A0936903B093C0
:1003C0006A0310927E0310928803109287038DEEC9
:1003D00092E0909386038093850310928A03089598
:1003E0009FB7F8942091590380915703213019F455
:1003F0008DBB9FBF08958FBF08952091590322237D
:1004000099F03FB7F89420915903213059F42DB356
:10041000209357034DB320915803209524232DBBDF
:100420003FBF02C0309357038CBD9DBD08958EBD64
:1004300000000DB407FEFDCF8EB508958FEF0C942C
:10044000170261E0FC0184810E94FA118091A403EB
:10045000882339F01092A4038091590381110C94E0
:10046000F0010895CF93DF93EC018091A4038111F3
:1004700009C081E08093A4038091A5039091A60315
:100480000E94FD0160E08C81DF91CF910C94FA1104
:10049000CF93DF93EC018E81882389F08F8198853B
:1004A0009C012F5F3F4F38872F838230924018F492
:1004B0000E941E02F3CFCE010E9421021E82DF9114
:1004C000CF910895673028F026E1FC01258380E074
:1004D0000895623081F030F4662359F06130B1F450
:1004E00080E515C0643059F040F0653079F482E55C
:1004F0000EC080E505C081E503C081E508C082E546
:100500008093A50381E08093A603089583E58093FB
:10051000A5031092A60381E008950F931F93CF9334
:10052000DF93EB010E9451118B010E941E028F3F4D
:1005300049F00E945111601B710B6C177D07A8F3E5
:1005400080E001C081E0DF91CF911F910F9108956C
:10055000CF92DF92FF920F931F93CF93DF9300D040
:1005600000D0CDB7DEB76C01F62E29833A834B83DA
:100570005C830E944802C6010E9432026CE271E074
:10058000C6010E948D028F2D80640E94170208E12F
:1005900010E05C814B813A812981DA01C901002E8A
:1005A00004C0B695A795979587950A94D2F72983A5
:1005B0003A834B835C830E941702085011092981FA
:1005C0003A814B815C81083F8FEF180731F7FF209C
:1005D00029F0E8E0FE1621F08FEF03C085E901C0A5
:1005E00087E80E94170210E00E941E02F60182872F
:1005F00087FF04C01F3F11F01F5FF6CF0F900F90D1
:100600000F900F90DF91CF911F910F91FF90DF908E
:10061000CF900895BF92CF92DF92EF92FF920F9307
:100620001F93CF93DF93EC01B62E1B8619861E8293
:100630001D824C830E9451118B0161E08C810E94CC
:10064000C11161E08C810E94FA110E94970182E53C
:100650008093A5031092A6038091A5039091A60311
:100660000E94FD012AE0F22E8FEF0E941702FA94F9
:10067000D9F78091590381110E94F001CE010E94A7
:10068000320220E030E0A90160E0CE010E94A80221
:10069000F82E8A8781E0F81649F00E945111601BFC
:1006A000710B613D774068F381E04BC02AEA31E08D
:1006B00040E050E068E0CE010E94A80282FF02C044
:1006C000FB860DC094E0F92E0E941E028A87FA94E0
:1006D000D9F78A3A11F082E034C082E08B878B85AB
:1006E000823031F4C12CD12CE12C80E4F82E03C0EF
:1006F000C12CD12C760120E030E0A90167E3CE01C6
:100700000E94A802A701960169E2CE010E94A802F8
:100710008A87882349F00E945111601B710B613D4B
:10072000774048F388E00DC08B85823031F520E0BA
:1007300030E0A9016AE3CE010E94A802882381F07B
:1007400086E08D83CE010E94210280E0DF91CF916F
:100750001F910F91FF90EF90DF90CF90BF90089581
:100760000E941E02807C803C11F483E08B870E94F3
:100770001E020E941E020E941E02CE010E94210241
:100780006B2DCE01DF91CF911F910F91FF90EF90D4
:10079000DF90CF90BF900C9462020F931F93CF9382
:1007A000DF93EC010E9451118B010E941E028A8787
:1007B0008F3F49F40E945111601B710B6D327140E3
:1007C000A0F38FE003C08E3F39F08DE08D83CE0122
:1007D0000E94210280E001C081E0DF91CF911F9152
:1007E0000F910895CF92DF92EF92FF920F931F9394
:1007F000CF93DF93EC0169010115110509F462C083
:10080000C801820F931F8130924008F05DC08E8135
:10081000882371F088819981AA81BB814817590783
:100820006A077B0729F48F819885C816D90610F5C9
:10083000488359836A837B838B85833039F039E021
:10084000440F551F661F771F3A95D1F79A01AB01E8
:1008500061E1CE010E94A802882319F083E08D8314
:1008600033C0CE010E94CD03882371F118861F8208
:1008700081E08E838F8198858C159D0540F40E94C0
:100880001E028F819885019698878F83F3CF670129
:10089000E00EF11ECE14DF0431F00E941E02F601BC
:1008A00081936F01F7CF8F819885800F911F988773
:1008B0008F832985222319F08115924018F0CE01EB
:1008C0000E94480281E004C0CE010E94210280E023
:1008D000DF91CF911F910F91FF90EF90DF90CF901C
:1008E0000895EF92FF920F931F93790100E012E0B9
:1008F00020E030E00E94F2031F910F91FF90EF90F3
:100900000895CF92DF92EF92FF920F931F93CF93B0
:10091000DF9300D0CDB7DEB78C01862F49835A8391
:100920000E9417024981C42E5A81D52EE12CF12C48
:10093000F60181916F010E941702FFEFEF1AFF0A83
:10094000E11482E0F806A1F78FEF0E9417028FEF03
:100950000E9417020E941E02F80182878F71853063
:1009600039F081E18583C8010E94210280E001C045
:1009700081E00F900F90DF91CF911F910F91FF9029
:10098000EF90DF90CF9008950F931F93CF93DF9355
:10099000EC018901411551056105710511F482E1F0
:1009A00032C08B85833039F089E0440F551F661FB4
:1009B000771F8A95D1F79A01AB0168E1CE010E94B9
:1009C000A802882311F084E01EC0A8016EEFCE01BA
:1009D0000E9481048823C1F068E572E0CE010E9484
:1009E0008D02811102C085E10EC020E030E0A90136
:1009F0006DE0CE010E94A802811104C00E941E0277
:100A0000882339F084E18D83CE010E94210280E0A9
:100A100004C0CE010E94210281E0DF91CF911F919D
:100A20000F91089580E58093A5031092A603089581
:100A3000CF93DF93EC019C012A5F3F4F41E050E0F0
:100A400060E070E08B8D9C8D0E94880E8823A1F061
:100A50004F89588D698D7A8D452B462B472B71F424
:100A60004E815F81688579854F8B588F698F7A8F2A
:100A70008C8180688C8302C080E001C081E0DF91BE
:100A8000CF910895CF93DF93EC01462F6E857F853C
:100A9000888999890E94BD0C882341F08A8920E2C7
:100AA000829FC001112480559C4F02C080E090E0DD
:100AB000DF91CF9108950F931F93CF93DF93EC01B4
:100AC0008B018D81882311F080E040C0FB01878974
:100AD0008031B1F482E08D831F8A188E198E1A8EB0
:100AE000408D518D60E070E095E0440F551F661F0A
:100AF000771F9A95D1F74B8B5C8B6D8B7E8B15C0D6
:100B0000803211F783E08D83FB01428D538D648D1C
:100B1000758D4F8B588F698F7A8F9E012D5E3F4F59
:100B2000C8010E947C0D882379F21C8F0B8F81E015
:100B30008C831E821F82188619861A861B861C8645
:100B40001D861E861F86188A198A1A8ADF91CF9100
:100B50001F910F910895CF93DF9300D01F92CDB7CF
:100B6000DEB76AE00E941C15805D8983905D9A83E0
:100B70001B82BE016F5F7F4F89EB95E00E94681476
:100B80000F900F900F90DF91CF910895CF93DF9347
:100B9000EC01BC01672F772766956454784F4AE0D3
:100BA00050E089EB95E00E9404156DE289EB95E039
:100BB0000E946A14CE0135E0969587953A95E1F743
:100BC0008F700E94AB056DE289EB95E00E946A147C
:100BD0008C2F8F71DF91CF910C94AB05CF93DF9366
:100BE000EC018D2F8695869586950E94AB056AE36C
:100BF00089EB95E00E946A14CE0145E096958795B1
:100C00004A95E1F78F730E94AB056AE389EB95E0A3
:100C10000E946A148C2F8F71880FDF91CF910C94F2
:100C2000AB052F923F924F925F926F927F928F927D
:100C30009F92AF92BF92CF92DF92EF92FF920F936B
:100C40001F93CF93DF93EC016B015A018D818111CA
:100C500003C08FEF9FEFDAC08C8180FFFACF4B8902
:100C60005C896D897E898A859B85AC85BD852501DA
:100C7000612C712C8A019B01081B190B2A0B3B0B61
:100C8000041515052605370518F45A01A81AB90ADE
:100C900025011E0126E0220E311C4114510409F4E5
:100CA0007BC04A855B856C857D854A0181E0982201
:100CB000ED818A019B01F9E03695279517950795F7
:100CC000FA95D1F78B8D9C8DE23051F4FC01628D49
:100CD000738D848D958D600F711F821F931F3EC091
:100CE000FC0174807A94702281149104C9F471100B
:100CF00017C0452B462B472B49F48F89988DA98D1A
:100D0000BA8D8E839F83A887B9870AC04E815F8181
:100D10006885798591010E94F80C882309F499CFA0
:100D2000EB8DFC8D6E817F8188859985625071097C
:100D300081099109058404C0660F771F881F991FD8
:100D40000A94D2F70685178520893189600F711FB3
:100D5000821F931F670D711D811D911D20E032E0E0
:100D60002819390932012415350508F439012C8177
:100D700026FD04C06114F2E07F06A1F50091060192
:100D80001091070120910801309109016017710746
:100D90008207930719F426C0C50138C07601830184
:100DA0009401AB01BC018091AE039091AF030E940E
:100DB000F203882309F44DCFC60CD71C04C0E81BEE
:100DC000F90BCE0EDF1E8A859B85AC85BD85860D11
:100DD000971DA11DB11D8A879B87AC87BD874618CB
:100DE00057085BCF40E00E94BD0C882309F431CF47
:100DF000C40180559C4FD6019C01260D371DFC0176
:100E0000E217F307E1F241914D93FACFDF91CF91D1
:100E10001F910F91FF90EF90DF90CF90BF90AF9018
:100E20009F908F907F906F905F904F903F902F900A
:100E30000895FF920F931F93CF93DF931F92CDB727
:100E4000DEB78C01FC018581823018F480E090E0EF
:100E500034C0F8014285538564857585A5E0769593
:100E6000679557954795AA95D1F7F42FFF70FF2EF8
:100E700041E050E0BE016F5F7F4FC8010E94110644
:100E8000019719F4298130E002C02FEF3FEF2F3F87
:100E90003F4FE1F2F8014285538564857585415ED7
:100EA0005F4F6F4F7F4F4287538764877587F0E2AC
:100EB000FF9EC001112480559C4F0F90DF91CF9170
:100EC0001F910F91FF9008954F925F926F927F92C2
:100ED000AF92BF92CF92DF92EF92FF920F931F9348
:100EE000CF93DF93EC016A017B012D81222309F46A
:100EF00057C08B899C89AD89BE8984179507A60741
:100F0000B70708F44DC04EC08A859B85AC85BD856A
:100F1000EB8DFC8DE585F0E03996AC01BD014150CB
:100F20005109610971090E2E04C076956795579590
:100F300047950A94D2F797018601015011092109BA
:100F4000310904C03695279517950795EA95D2F78C
:100F50000417150726073707B0F58F89988DA98DD7
:100F6000BA8D8E839F83A887B987280139015E01D6
:100F700086E0A80EB11C411451046104710461F1B2
:100F80004E815F816885798595018B8D9C8D0E944E
:100F9000F80C91E0491A5108610871088111EBCFF2
:100FA00080E01FC02230C1F0C114D104E104F1047B
:100FB00009F0AACF1E821F82188619861A861B8600
:100FC0001C861D860DC0892B8A2B8B2B31F2041BAE
:100FD000150B260B370BC9CFCA86DB86EC86FD8640
:100FE00081E0DF91CF911F910F91FF90EF90DF9003
:100FF000CF90BF90AF907F906F905F904F9008958B
:101000000F931F93CF93DF93EC018D818823C9F158
:101010008C8187FF30C061E0CE010E9442058C01C7
:10102000009779F18D81823048F44B895C896D8914
:101030007E89F801448F558F668F778F4F89588D41
:10104000698D7A8DF801538F428F758B648BE09197
:10105000A703F091A803309759F0B8016A5E7F4F5B
:10106000C80148960995F801808D918D938B828BEC
:101070008C818F778C83DF91CF911F910F910C948E
:10108000820C80E0DF91CF911F910F9108954F92D4
:101090005F926F927F92AF92BF92CF92DF92EF9268
:1010A000FF920F931F93CF93DF9300D000D0CDB763
:1010B000DEB75C016A017B01FC0185818130F1F4BE
:1010C000848181FF1BC0F50183899489A589B68934
:1010D00084179507A607B70788F0892B8A2B8B2BD7
:1010E00009F479C0F5014284538464847584B7019E
:1010F000A601C5010E946407811102C080E06CC096
:10110000F501838D948DC114D104E104F10471F4CF
:101110004789508D618D728D0E949D0F882371F3D8
:10112000F501178A108E118E128E3AC0F501468194
:101130005781608571859E012F5F3F4F0E94F80C9B
:101140008823E1F249815A816B817C81F501838D8D
:10115000948DFC012789203129F408EF1FEF20E04E
:1011600030E004C008EF1FEF2FEF3FE040175107BA
:1011700062077307A8F40E949D0F882309F4BECF6D
:10118000F50146815781608571850FEF1FEF2FEFC5
:101190003FE0838D948D0E94E70D882309F4AECF44
:1011A000F501C38AD48AE58AF68A848180688483BB
:1011B000C5010E940008882309F4A0CFB701A60149
:1011C0004C145D046E047F0410F4B301A201C50148
:1011D0000E94640701C081E00F900F900F900F9064
:1011E000DF91CF911F910F91FF90EF90DF90CF9003
:1011F000BF90AF907F906F905F904F900895FF9257
:101200000F931F93CF93DF93EC01F42E80E2689F3E
:10121000F0011124E055FC4F8385817129F0842F62
:10122000827411F080E053C06A8B80910601909126
:101230000701A0910801B09109018E879F87A88BB3
:10124000B98B4489558960E070E0BA01552744277D
:10125000028D138D20E030E0402B512B622B732B3D
:101260004F8B588F698F7A8F8385887151F4048DE5
:10127000158D268D378D0B8B1C8B2D8B3E8B81E036
:101280000CC0803179F69E012D5E3F4F8B8D9C8D79
:101290000E947C0D882331F284E08D838F2D8F7026
:1012A0008C831E821F82188619861A861B861C86CE
:1012B0001D86F6FE0BC040E050E0BA01CE01DF9182
:1012C000CF911F910F91FF900C94470881E0DF911F
:1012D000CF911F910F91FF900895DF92EF92FF92AF
:1012E0000F931F93CF93DF93EC018B017A01D22EE2
:1012F0008D8181112FC0822F8073803359F1FB01C2
:10130000838D948D9C8F8B8F65E0440F551F6A955C
:10131000E1F760E070E0C8010E9464078823D1F023
:10132000C8010E9419070097A9F0FC018081882359
:1013300089F0853E79F08E3269F06E2D6F704D2DFB
:10134000CE01DF91CF911F910F91FF90EF90DF9031
:101350000C94FF0880E0DF91CF911F910F91FF90D7
:10136000EF90DF9008952F923F924F925F926F928D
:101370007F928F929F92AF92BF92CF92DF92EF9225
:10138000FF920F931F93CF93DF9300D000D01F9253
:10139000CDB7DEB78C017B013A01DC0115968C914B
:1013A00015978130C9F414968C9181FF15C082FF86
:1013B0001BC0F801438954896589768982859385A4
:1013C000A485B58584179507A607B70769F0C801F6
:1013D0000E946407811108C081E090E0F8019383C6
:1013E000828380E090E046C1630180C0D8015B96B3
:1013F0008D919C915C97FC01F481F150B501A401A1
:1014000029E076956795579547952A95D1F7F42366
:10141000FD8321E09222FF2309F474C080E092E072
:101420008819990956018C159D0508F45C01D801AD
:101430005B96ED91FC915C9716962D903D904D90AA
:101440005C901997B2E02B1A3108410851080584C5
:1014500004C0220C331C441C551C0A94D2F7868508
:101460009785A089B189280E391E4A1E5B1EED8121
:101470002E0E311C411C511CA114F2E0BF0609F0D4
:1014800088C08091060190910701A0910801B09158
:10149000090182159305A405B50559F48FEF9FEF57
:1014A000DC018093060190930701A0930801B0939B
:1014B00009019701B201A1018091AE039091AF03A0
:1014C0000E94C404882309F487CF9EEFF91ACA1832
:1014D000DB08F80182859385A485B5858A0D9B1D5F
:1014E000A11DB11D82879387A487B587D8011A965D
:1014F0008D909D90AD90BC901D97C114D10409F0C2
:1015000075CF8AC08114910409F088CF16964D9149
:101510005D916D917C91199741155105610571059A
:1015200059F457968D919D910D90BC91A02D0097E7
:10153000A105B10541F521C09E012F5F3F4F0E94DB
:10154000F80C882309F44ECF89819A81AB81BC8144
:10155000F801238D348DF9012789203129F448EFD2
:101560005FEF60E070E004C048EF5FEF6FEF7FE097
:1015700084179507A607B70730F0C8010E94180521
:1015800081114CCF29CFF80186839783A087B1873B
:1015900045CF8114910429F5D8011A964D915D919A
:1015A0006D917C911D9753968D919D910D90BC915D
:1015B000A02D481759076A077B0798F00E94820CF4
:1015C000882309F409CF2092060130920701409246
:1015D0000801509209018091AD0381608093AD03B1
:1015E00008C041E0C201B1010E94BD0C882309F48A
:1015F000F3CEC40180559C4FD7019C012A0D3B1DA1
:10160000FC01E217F30719F04D914193FACFE81B63
:10161000F90BEE0EFF1E5BCF53968D919D910D90B1
:10162000BC91A02DF801248188159905AA05BB0558
:1016300038F4838A948AA58AB68A206824830CC0E9
:101640008091A7039091A803892B31F06114710454
:1016500019F02068F8012483D80114968C9183FD39
:1016600002C0C30107C0C8010E940008882309F412
:10167000B3CEF7CF0F900F900F900F900F90DF9198
:10168000CF911F910F91FF90EF90DF90CF90BF907F
:10169000AF909F908F907F906F905F904F903F9012
:1016A0002F900895CF93DF931F92CDB7DEB7698354
:1016B00041E050E0BE016F5F7F4F0E94B3090F9081
:1016C000DF91CF910895DF92EF92FF920F931F93D6
:1016D000CF93DF938C01D62EEC01E12CF12C888185
:1016E000803279F088E0E81206C06EE289EB95E07E
:1016F0000E946A14F394688189EB95E00E94AE120F
:10170000F394E3942196EBE0EE12E9CFF8018385A0
:101710008871803131F46FE289EB95E00E946A14A0
:10172000F394FD1410F460E2F7CFDF91CF911F9195
:101730000F91FF90EF90DF9008952F923F924F927C
:101740005F926F927F928F929F92AF92BF92CF9251
:10175000DF92EF92FF920F931F93CF93DF93CDB75A
:10176000DEB7A0970FB6F894DEBF0FBECDBF7C01E9
:10177000962EFC0116821782108611861286138619
:1017800014861586C42ED12CF62FF370FE8F862F6B
:101790008170282EE62FE470EF8F7DEEA72E72E089
:1017A000B72EE2E08E2E840EF62FF270F8A3C7015A
:1017B0000E9419078C01009709F48BC0F801808101
:1017C000882309F486C0853E91F38E3281F38385A8
:1017D00083FDEDCF312C832D992787FD90958C15B6
:1017E0009D053CF460E289EB95E00E946A14339415
:1017F000F2CFFE8DFF2311F06EE001C060E0C80162
:101800000E94630B222079F0F801808D918D0E9457
:10181000C60560E289EB95E00E946A14F8018689AA
:1018200097890E94EE05F80183858871803119F04F
:10183000F8A1F1110FC089EB95E00E9471148F8D12
:10184000882309F4B4CFF80183858871803109F0C9
:10185000AECF11C060E289EB95E00E946A14F801F6
:10186000448D558D668D778D2AE030E089EB95E0CB
:101870000E94E014E0CFF7014284538464847584AD
:1018800035E076946794579447943A95D1F71C8243
:101890001B82BA82A9821E82A2014150510921E015
:1018A000B701CE0101960E946D09882331F0482DC1
:1018B000692DCE0101960E949D0BA20165E0440FA7
:1018C000551F6A95E1F760E070E0C7010E94640768
:1018D0006ECFA0960FB6F894DEBF0FBECDBFDF91DE
:1018E000CF911F910F91FF90EF90DF90CF90BF901D
:1018F000AF909F908F907F906F905F904F903F90B0
:101900002F9008958091AD03882399F140910601AD
:1019100050910701609108017091090120EB33E0BB
:101920008091AE039091AF030E94C404882319F103
:101930004091A9035091AA036091AB037091AC034D
:10194000411551056105710591F020EB33E080915F
:10195000AE039091AF030E94C404882361F01092FB
:10196000A9031092AA031092AB031092AC03109239
:10197000AD0381E0089580E00895CF92DF92EF9269
:10198000FF92CF936B017C01C42F8091060190914F
:101990000701A0910801B09109018C159D05AE05C4
:1019A000BF05D1F00E94820C811102C080E01AC0F4
:1019B00020EB33E0B701A6018091AE039091AF0315
:1019C0000E947104882391F3C0920601D09207010E
:1019D000E0920801F09209018091AD038C2B809375
:1019E000AD0381E0CF91FF90EF90DF90CF9008950D
:1019F0008F929F92AF92BF92CF92DF92EF92FF921F
:101A00000F931F93CF93DF938C016A017B01E90150
:101A1000FC0181859285A385B4850196A11DB11D28
:101A200084179507A607B70710F480E058C0F8019F
:101A300043895489658976898789803129F4BB2750
:101A4000AF2D9E2D8D2D09C0D701C60127E0B6957B
:101A5000A795979587952A95D1F74C015D01840E3E
:101A6000951EA61EB71EC501B40180900601909078
:101A70000701A0900801B0900901681579058A0551
:101A80009B0589F4F8018789803199F4DD24EE24DF
:101A9000FF24F601EE0FFF1FE055FC4F808191817E
:101AA000A0E0B0E017C040E00E94BD0C8111EACF79
:101AB000BCCFE894C7F8DD24EE24FF24F601EE0F36
:101AC000FF1FEE0FFF1FE055FC4F80819181A28127
:101AD000B381BF7088839983AA83BB8381E0DF9140
:101AE000CF911F910F91FF90EF90DF90CF90BF901B
:101AF000AF909F908F9008954F925F926F927F92D8
:101B0000AF92BF92CF92DF92EF92FF920F931F930B
:101B1000CF93DF9300D000D0CDB7DEB78C014983DF
:101B20005A836B837C835901C12CD12C7601412CC3
:101B300042E0542E612C712C49815A816B817C8149
:101B40009E012F5F3F4FC8010E94F80C882359F176
:101B5000D301C201F801058404C0880F991FAA1F90
:101B6000BB1F0A94D2F7C80ED91EEA1EFB1E49817C
:101B70005A816B817C818789803129F488EF9FEFBE
:101B8000A0E0B0E004C088EF9FEFAFEFBFE04817E0
:101B900059076A077B0780F2F501C082D182E28291
:101BA000F38281E001C080E00F900F900F900F90C2
:101BB000DF91CF911F910F91FF90EF90DF90CF9029
:101BC000BF90AF907F906F905F904F9008954F922D
:101BD0005F926F927F928F929F92AF92BF92CF92BD
:101BE000DF92EF92FF920F931F93CF93DF93EC015D
:101BF0006A017B01280139014230510561057105F7
:101C000008F474C049855A856B857C854F5F5F4FAA
:101C10006F4F7F4F4C155D056E057F0508F466C05C
:101C20008B889C88AD88BE888F89803129F477277E
:101C30006F2D5E2D4D2D09C0B701A601E7E0769509
:101C4000679557954795EA95D1F7840E951EA61E80
:101C5000B71E4091060150910701609108017091F3
:101C6000090184169506A606B70671F48F8980319E
:101C700099F4DD24EE24FF24F601EE0FFF1FE0555A
:101C8000FC4F5182408218C040E0C501B4010E945F
:101C9000BD0C8111EBCF2AC0E894C7F8DD24EE24F7
:101CA000FF24F601EE0FFF1FEE0FFF1FE055FC4F64
:101CB00040825182628273828091AD038160809301
:101CC000AD038A89823080F08D819E81AF81B88595
:101CD000880D991DAA1DBB1D8093A9039093AA038B
:101CE000A093AB03B093AC0381E001C080E0DF912F
:101CF000CF911F910F91FF90EF90DF90CF90BF9009
:101D0000AF909F908F907F906F905F904F900895CD
:101D10002F923F924F925F926F927F929F92AF92DB
:101D2000BF92CF92DF92EF92FF920F931F93CF93C8
:101D3000DF93CDB7DEB760970FB6F894DEBF0FBE66
:101D4000CDBF5C014D875E876F87788B1901D90104
:101D50004D905D906D907C9041145104610471042C
:101D600031F0BFEF4B1A5B0A6B0A7B0A10C0FC0113
:101D70004080518062807380992493940D851E85E4
:101D80002F853889013011052105310509F0912C85
:101D9000D50119962D913D914D915C911C972F5F26
:101DA0003F4F4F4F5F4F29873A874B875C877301BF
:101DB00062011D821E821F821886F501818592852F
:101DC000A385B4850D811E812F81388508171907D9
:101DD0002A073B0708F056C029853A854B855C8564
:101DE0002C153D054E055F0550F4A2E0CA2ED12CFE
:101DF000E12CF12CB2E04B2E512C612C712C9E0168
:101E00002F5F3F4FB701A601C5010E94F80C882340
:101E1000C9F149815A816B817C81D701C601019644
:101E2000A11DB11D452B462B472B19F02C013D015F
:101E30000FC0AC01BD0144195509660977090D852C
:101E40001E852F853889401751076207730779F07F
:101E50002D813E814F8158852F5F3F4F4F4F5F4F00
:101E60002D833E834F8358876C017D01A6CF0FEFF2
:101E70001FEF2FEF3FE0B701A601C5010E94E70D5C
:101E8000811118C080E041C0D701C6010197A109A6
:101E9000B1098D839E83AF83B88797018601AC011A
:101EA000BD01C5010E94E70D882361F3CD80DE806E
:101EB000EF80F8844C145D046E047F0428F3D10194
:101EC0004D915D916D917C914115510561057105B3
:101ED00099F4F10140825182628273829920A1F0CB
:101EE000FFEF4F1A5F0A6F0A7F0AD5014D925D928C
:101EF0006D927C92139708C093018201C5010E94E4
:101F0000E70D8111E6CFBECF81E060960FB6F89461
:101F1000DEBF0FBECDBFDF91CF911F910F91FF901C
:101F2000EF90DF90CF90BF90AF909F907F906F9099
:101F30005F904F903F902F900895AF92BF92CF92B5
:101F4000DF92EF92FF920F931F93CF93DF9300D016
:101F500000D0CDB7DEB75C016A017B0182E090E082
:101F6000A0E0B0E0F50180839183A283B3839E015A
:101F70002F5F3F4FB701A601C5010E94F80C8823CF
:101F800011F100E010E09801B701A601C5010E941F
:101F9000E70D8823C1F0C980DA80EB80FC80F50171
:101FA0008789803129F488EF9FEFA0E0B0E004C07A
:101FB00088EF9FEFAFEFBFE0C816D906EA06FB0631
:101FC000B0F281E001C080E00F900F900F900F9071
:101FD000DF91CF911F910F91FF90EF90DF90CF9005
:101FE000BF90AF9008958F929F92AF92BF92CF9281
:101FF000DF92EF92FF920F931F93CF93DF93EC0149
:10200000142F7093AF036093AE03442341F1453026
:1020100010F080E0EFC040E060E070E0CB010E9493
:10202000BD0C8823B1F320E1129FF0011124E25A84
:10203000FA4F80818F7769F784859585A685B78566
:1020400084369105A105B10520F3C084D184E284D2
:10205000F384C114D104E104F10421F4DACFC12CDA
:10206000D12C760140E0C701B6010E94BD0C882347
:1020700081F28091BB039091BC038115924049F697
:102080003091C003332329F28091BE039091BF03A6
:10209000892B09F4BECF2091BD03222309F4B9CFC7
:1020A0003A8B2C831D8630E041E050E06D85062F91
:1020B000CA01062E02C0880F991F0A94E2F728175A
:1020C000390731F081E0860F8D87683078F3A1CF32
:1020D0002091C6033091C7032115310519F040E066
:1020E00050E008C02091D4033091D5034091D6032D
:1020F0005091D7032D833E834F8358878091BE0331
:102100009091BF0346015701880E991EA11CB11C76
:102110008B8A9C8AAD8ABE8AE091C103F091C2038A
:10212000F98FE88FA091C003B0E00E944A15680DB6
:10213000791D8A1D9B1D6A8F7B8F8C8F9D8F15E06B
:10214000EE0FFF1F1A95E1F7E150FE4FEF2FFF272B
:10215000E695DC01CB018E0F9F1FA11DB11D8E875F
:102160009F87A88BB98B8090C3039090C403811480
:10217000910419F0A12CB12C08C08090D00390904C
:10218000D103A090D203B090D303A7019601281BDE
:10219000390B4A0B5B0BDA01C901880D991DAA1D89
:1021A000BB1D04C0B695A795979587950A95D2F75C
:1021B00089879A87AB87BC87853F3FE09307A10556
:1021C000B10510F48CE014C0853F9F4FA105B10507
:1021D00010F480E10DC08091DC039091DD03A091AB
:1021E000DE03B091DF038A8F9B8FAC8FBD8F80E2BF
:1021F0008F8B81E0DF91CF911F910F91FF90EF9036
:10220000DF90CF90BF90AF909F908F9008951F92D6
:102210000F920FB60F9211242F933F938F939F939A
:10222000AF93BF938091B1059091B205A091B30592
:10223000B091B4053091B00523E0230F2D3720F481
:102240000196A11DB11D05C026E8230F0296A11D10
:10225000B11D2093B0058093B1059093B205A09372
:10226000B305B093B4058091B5059091B605A091E2
:10227000B705B091B8050196A11DB11D8093B505B4
:102280009093B605A093B705B093B805BF91AF91F1
:102290009F918F913F912F910F900FBE0F901F90A4
:1022A00018952FB7F8946091B1057091B20580919F
:1022B000B3059091B4052FBF0895789484B58260DA
:1022C00084BD84B5816084BD85B5826085BD85B5DA
:1022D000816085BDEEE6F0E0808181608083E1E889
:1022E000F0E01082808182608083808181608083C1
:1022F000E0E8F0E0808181608083E1EBF0E08081C4
:1023000084608083E0EBF0E0808181608083EAE795
:10231000F0E080818460808380818260808380811E
:10232000816080838081806880831092C1000895DD
:10233000833081F028F4813099F08230A1F0089543
:102340008730A9F08830B9F08430D1F480918000D2
:102350008F7D03C0809180008F77809380000895E7
:1023600084B58F7702C084B58F7D84BD0895809138
:10237000B0008F7703C08091B0008F7D8093B00054
:102380000895CF93DF9390E0FC01E458FF4F249130
:10239000FC01E057FF4F8491882349F190E0880FBA
:1023A000991FFC01E255FF4FA591B4918C559F4FA9
:1023B000FC01C591D4919FB7611108C0F8948C912C
:1023C000209582238C93888182230AC0623051F445
:1023D000F8948C91322F309583238C938881822BB3
:1023E000888304C0F8948C91822B8C939FBFDF91DB
:1023F000CF9108950F931F93CF93DF931F92CDB783
:10240000DEB7282F30E0F901E859FF4F8491F90138
:10241000E458FF4F1491F901E057FF4F0491002356
:10242000C9F0882321F069830E9498116981E02F07
:10243000F0E0EE0FFF1FEC55FF4FA591B4919FB751
:10244000F8948C91611103C01095812301C0812BF8
:102450008C939FBF0F90DF91CF911F910F910895A3
:10246000FC01818D228D90E0805C9F4F821B910941
:102470008F7399270895FC01918D828D981731F003
:10248000828DE80FF11D858D90E008958FEF9FEF0D
:102490000895FC01918D828D981761F0828DDF0186
:1024A000A80FB11D5D968C91928D9F5F9F73928F47
:1024B00090E008958FEF9FEF08958DEC93E1892BC5
:1024C00049F080E090E0892B29F00E94CD13811122
:1024D0000C9400000895FC01848DDF01A80FB11D4C
:1024E000A35ABF4F2C91848D90E001968F7399274A
:1024F000848FA689B7892C93A089B1898C91806437
:102500008C93938D848D981306C00288F389E02DF7
:1025100080818F7D80830895CF93DF93EC01888D38
:102520008823C9F0EA89FB89808185FD05C0A889D7
:10253000B9898C9186FD0FC00FB607FCF5CF80815D
:1025400085FFF2CFA889B9898C9185FFEDCFCE01A7
:102550000E946B12E7CFDF91CF910895CF92DF9267
:10256000FF920F931F93CF93DF931F92CDB7DEB7E8
:102570006C0181E0D60158968C9358975B969C919C
:102580005B975C968C915C97981307C05096ED9181
:10259000FC915197808185FD2EC0F601038D10E0DE
:1025A0000F5F1F4F0F731127F02EF601848DF81265
:1025B00011C00FB607FCF9CFD6015096ED91FC91F2
:1025C0005197808185FFF1CFC60169830E946B120C
:1025D0006981EBCF838DE80FF11DE35AFF4F6083D4
:1025E000D6015B960C935B975296ED91FC915397B5
:1025F000808180620CC0D6015696ED91FC91579770
:1026000060835096ED91FC91519780818064808326
:1026100081E090E00F90DF91CF911F910F91FF909B
:10262000DF90CF900895BF92CF92DF92EF92FF920A
:10263000CF93DF93EC016A017B01B22EE889F9891F
:1026400082E08083411581EE580761057105A1F094
:1026500060E079E08DE390E0A70196010E942815E3
:1026600021503109410951095695479537952795CC
:10267000211580E1380798F0E889F989108260E82F
:1026800074E88EE190E0A70196010E942815215080
:102690003109410951095695479537952795EC859C
:1026A000FD853083EE85FF852083188EEC89FD89BA
:1026B000B082EA89FB89808180618083EA89FB8915
:1026C000808188608083EA89FB898081806880833B
:1026D000EA89FB8980818F7D8083DF91CF91FF9094
:1026E000EF90DF90CF90BF9008951F920F920FB69A
:1026F0000F9211242F938F939F93EF93FF93E09169
:10270000C905F091CA058081E091CF05F091D0050F
:1027100082FD12C090818091D2058F5F8F732091CE
:10272000D305821751F0E091D205F0E0E754FA4F5B
:10273000958F8093D20501C08081FF91EF919F9189
:102740008F912F910F900FBE0F901F9018951F9291
:102750000F920FB60F9211242F933F934F935F93D5
:102760006F937F938F939F93AF93BF93EF93FF9359
:1027700089EB95E00E946B12FF91EF91BF91AF91B1
:102780009F918F917F916F915F914F913F912F9189
:102790000F900FBE0F901F90189589EB95E00E9447
:1027A000301221E0892B09F420E0822F0895109245
:1027B000BC051092BB0588EE93E0A0E0B0E08093EA
:1027C000BD059093BE05A093BF05B093C00585EFEE
:1027D00092E09093BA058093B90585EC90E09093D0
:1027E000C6058093C50584EC90E09093C80580935E
:1027F000C70580EC90E09093CA058093C90581ECF1
:1028000090E09093CC058093CB0582EC90E0909380
:10281000CE058093CD0586EC90E09093D005809313
:10282000CF051092D2051092D3051092D4051092C4
:10283000D505089508950E945D110E941A140E9402
:102840008A00CDE5D2E10E9473012097E1F30E9456
:102850005D12F9CFCF92DF92EF92FF920F931F9309
:10286000CF93DF936C017A01EB01E60EF71E00E0D7
:1028700010E0CE15DF0561F06991D601ED91FC9174
:102880000190F081E02DC6010995080F191FF1CFC5
:10289000C801DF91CF911F910F91FF90EF90DF90D2
:1028A000CF9008956115710581F0DB010D90002036
:1028B000E9F7AD0141505109461B570BDC01ED9181
:1028C000FC910280F381E02D099480E090E008956E
:1028D0000C945214DC01ED91FC910190F081E02DFB
:1028E000099461E073E00C9452140F931F93CF93FB
:1028F000DF93EC010E9452148C01CE010E947114EE
:10290000800F911FDF91CF911F910F9108958F92AA
:102910009F92AF92BF92CF92DF92EF92FF920F936E
:102920001F93CF93DF93CDB7DEB7A1970FB6F8947F
:10293000DEBF0FBECDBF7C01C42EE52FCB01D22E52
:1029400019A221E02D1510F02AE0D22E8E010F5D84
:102950001F4F8D2C912CA12CB12C6C2D7E2FA501FD
:1029600094010E9428158C2DD29E801911240150AB
:1029700011098A3014F4805D01C0895CF8018083FC
:10298000211531054105510521F0C22EE32FCA0161
:10299000E4CFB801C7010E945214A1960FB6F89473
:1029A000DEBF0FBECDBFDF91CF911F910F91FF9082
:1029B000EF90DF90CF90BF90AF909F908F90089551
:1029C0002115310541F4DC01ED91FC910190F0817C
:1029D000E02D642F09940C9487140F931F93CF93C9
:1029E000DF93EC019A01462F50E060E070E00E9416
:1029F000E0148C01CE010E947114800F911FDF91B1
:102A0000CF911F910F9108959A01AB0160E070E0A2
:102A10000C94E0140F931F93CF93DF93EC010E946B
:102A2000E0148C01CE010E947114800F911FDF9180
:102A3000CF911F910F910895991B79E004C0991FC0
:102A4000961708F0961B881F7A95C9F78095089508
:102A5000A1E21A2EAA1BBB1BFD010DC0AA1FBB1FA2
:102A6000EE1FFF1FA217B307E407F50720F0A21B14
:102A7000B30BE40BF50B661F771F881F991F1A9481
:102A800069F760957095809590959B01AC01BD01AB
:102A9000CF0108950E945B15A59F900DB49F900DE6
:102AA000A49F800D911D11240895EE0FFF1F059026
:102AB000F491E02D0994A29FB001B39FC001A39FA0
:102AC000700D811D1124911DB29F700D811D112467
:082AD000911D0895F894FFCF59
:102AD800000056068000FFFFFFFF0A496E6974690F
:102AE800616C697A696E6720534420636172642E51
:102AF8002E2E00696E697469616C697A6174696FF8
:102B08006E206661696C65642E205468696E67730F
:102B180020746F20636865636B3A002A206973200C
:102B280061206361726420697320696E73657274D1
:102B380065643F002A20497320796F757220776990
:102B480072696E6720636F72726563743F002A2032
:102B580064696420796F75206368616E67652074A5
:102B68006865206368697053656C65637420706973
:102B78006E20746F206D6174636820796F757220A0
:102B8800736869656C64206F72206D6F64756C651D
:102B98003F00576972696E6720697320636F7272AC
:102BA80065637420616E64206120636172642069CA
:102BB800732070726573656E742E000A43617264C7
:102BC80020747970653A2000534431005344320030
:102BD8005344484300556E6B6E6F776E00436F75B4
:102BE8006C64206E6F742066696E642046415431AF
:102BF800362F464154333220706172746974696F9C
:102C08006E2E0A4D616B65207375726520796F753C
:102C180027766520666F726D6174746564207468C8
:102C2800652063617264000A566F6C756D65207467
:102C38007970652069732046415400566F6C756D34
:102C4800652073697A6520286279746573293A204A
:102C580000566F6C756D652073697A6520284B6224
:102C680079746573293A2000566F6C756D65207309
:102C7800697A6520284D6279746573293A20000ABB
:102C880046696C657320666F756E64206F6E20747C
:102C98006865206361726420286E616D652C20640C
:102CA80061746520616E642073697A6520696E209D
:102CB8006279746573293A200000000000520B2ADB
:102CC8001400000000AE122A14301249123B128C74
:102CD800120D0A006E616E00696E66006F766600FE
:00000001FF
